{
  "_format": "hh-sol-artifact-1",
  "contractName": "VibeTribe",
  "sourceName": "contracts/VibeTribe.sol",
  "abi": [
    {
      "inputs": [
        {
          "internalType": "uint256",
          "name": "",
          "type": "uint256"
        }
      ],
      "name": "communities",
      "outputs": [
        {
          "internalType": "string",
          "name": "name",
          "type": "string"
        },
        {
          "internalType": "string",
          "name": "country",
          "type": "string"
        },
        {
          "internalType": "string",
          "name": "location",
          "type": "string"
        },
        {
          "internalType": "uint256",
          "name": "peopleCount",
          "type": "uint256"
        },
        {
          "internalType": "string",
          "name": "travelDates",
          "type": "string"
        },
        {
          "internalType": "string",
          "name": "description",
          "type": "string"
        },
        {
          "internalType": "string",
          "name": "imageSrc",
          "type": "string"
        }
      ],
      "stateMutability": "view",
      "type": "function"
    },
    {
      "inputs": [
        {
          "internalType": "string",
          "name": "_name",
          "type": "string"
        },
        {
          "internalType": "string",
          "name": "_country",
          "type": "string"
        },
        {
          "internalType": "string",
          "name": "_location",
          "type": "string"
        },
        {
          "internalType": "uint256",
          "name": "_peopleCount",
          "type": "uint256"
        },
        {
          "internalType": "string",
          "name": "_travelDates",
          "type": "string"
        },
        {
          "internalType": "string",
          "name": "_description",
          "type": "string"
        },
        {
          "internalType": "string",
          "name": "_imageSrc",
          "type": "string"
        }
      ],
      "name": "createCommunity",
      "outputs": [],
      "stateMutability": "nonpayable",
      "type": "function"
    },
    {
      "inputs": [],
      "name": "getCommunities",
      "outputs": [
        {
          "internalType": "string[]",
          "name": "names",
          "type": "string[]"
        },
        {
          "internalType": "string[]",
          "name": "countries",
          "type": "string[]"
        },
        {
          "internalType": "string[]",
          "name": "locations",
          "type": "string[]"
        },
        {
          "internalType": "uint256[]",
          "name": "peopleCounts",
          "type": "uint256[]"
        },
        {
          "internalType": "string[]",
          "name": "travelDates",
          "type": "string[]"
        },
        {
          "internalType": "string[]",
          "name": "descriptions",
          "type": "string[]"
        },
        {
          "internalType": "string[]",
          "name": "imageSrcs",
          "type": "string[]"
        }
      ],
      "stateMutability": "view",
      "type": "function"
    }
  ],
  "bytecode": "0x6080604052348015600f57600080fd5b506115be8061001f6000396000f3fe608060405234801561001057600080fd5b50600436106100415760003560e01c8063c251b56514610046578063c6f89aca1461006a578063e590b56a14610086575b600080fd5b61004e6100bc565b6040516100619796959493929190610dfd565b60405180910390f35b610084600480360381019061007f9190611012565b61076a565b005b6100a0600480360381019061009b919061115c565b610861565b6040516100b397969594939291906111e2565b60405180910390f35b60608060608060608060606000808054905090508067ffffffffffffffff8111156100ea576100e9610ebb565b5b60405190808252806020026020018201604052801561011d57816020015b60608152602001906001900390816101085790505b5097508067ffffffffffffffff81111561013a57610139610ebb565b5b60405190808252806020026020018201604052801561016d57816020015b60608152602001906001900390816101585790505b5096508067ffffffffffffffff81111561018a57610189610ebb565b5b6040519080825280602002602001820160405280156101bd57816020015b60608152602001906001900390816101a85790505b5095508067ffffffffffffffff8111156101da576101d9610ebb565b5b6040519080825280602002602001820160405280156102085781602001602082028036833780820191505090505b5094508067ffffffffffffffff81111561022557610224610ebb565b5b60405190808252806020026020018201604052801561025857816020015b60608152602001906001900390816102435790505b5093508067ffffffffffffffff81111561027557610274610ebb565b5b6040519080825280602002602001820160405280156102a857816020015b60608152602001906001900390816102935790505b5092508067ffffffffffffffff8111156102c5576102c4610ebb565b5b6040519080825280602002602001820160405280156102f857816020015b60608152602001906001900390816102e35790505b50915060005b8181101561075f57600080828154811061031b5761031a61127b565b5b9060005260206000209060070201905080600001805461033a906112d9565b80601f0160208091040260200160405190810160405280929190818152602001828054610366906112d9565b80156103b35780601f10610388576101008083540402835291602001916103b3565b820191906000526020600020905b81548152906001019060200180831161039657829003601f168201915b50505050508a83815181106103cb576103ca61127b565b5b60200260200101819052508060010180546103e5906112d9565b80601f0160208091040260200160405190810160405280929190818152602001828054610411906112d9565b801561045e5780601f106104335761010080835404028352916020019161045e565b820191906000526020600020905b81548152906001019060200180831161044157829003601f168201915b50505050508983815181106104765761047561127b565b5b6020026020010181905250806002018054610490906112d9565b80601f01602080910402602001604051908101604052809291908181526020018280546104bc906112d9565b80156105095780601f106104de57610100808354040283529160200191610509565b820191906000526020600020905b8154815290600101906020018083116104ec57829003601f168201915b50505050508883815181106105215761052061127b565b5b602002602001018190525080600301548783815181106105445761054361127b565b5b60200260200101818152505080600401805461055f906112d9565b80601f016020809104026020016040519081016040528092919081815260200182805461058b906112d9565b80156105d85780601f106105ad576101008083540402835291602001916105d8565b820191906000526020600020905b8154815290600101906020018083116105bb57829003601f168201915b50505050508683815181106105f0576105ef61127b565b5b602002602001018190525080600501805461060a906112d9565b80601f0160208091040260200160405190810160405280929190818152602001828054610636906112d9565b80156106835780601f1061065857610100808354040283529160200191610683565b820191906000526020600020905b81548152906001019060200180831161066657829003601f168201915b505050505085838151811061069b5761069a61127b565b5b60200260200101819052508060060180546106b5906112d9565b80601f01602080910402602001604051908101604052809291908181526020018280546106e1906112d9565b801561072e5780601f106107035761010080835404028352916020019161072e565b820191906000526020600020905b81548152906001019060200180831161071157829003601f168201915b50505050508483815181106107465761074561127b565b5b60200260200101819052505080806001019150506102fe565b505090919293949596565b60006040518060e0016040528089815260200188815260200187815260200186815260200185815260200184815260200183815250908060018154018082558091505060019003906000526020600020906007020160009091909190915060008201518160000190816107dd91906114b6565b5060208201518160010190816107f391906114b6565b50604082015181600201908161080991906114b6565b5060608201518160030155608082015181600401908161082991906114b6565b5060a082015181600501908161083f91906114b6565b5060c082015181600601908161085591906114b6565b50505050505050505050565b6000818154811061087157600080fd5b9060005260206000209060070201600091509050806000018054610894906112d9565b80601f01602080910402602001604051908101604052809291908181526020018280546108c0906112d9565b801561090d5780601f106108e25761010080835404028352916020019161090d565b820191906000526020600020905b8154815290600101906020018083116108f057829003601f168201915b505050505090806001018054610922906112d9565b80601f016020809104026020016040519081016040528092919081815260200182805461094e906112d9565b801561099b5780601f106109705761010080835404028352916020019161099b565b820191906000526020600020905b81548152906001019060200180831161097e57829003601f168201915b5050505050908060020180546109b0906112d9565b80601f01602080910402602001604051908101604052809291908181526020018280546109dc906112d9565b8015610a295780601f106109fe57610100808354040283529160200191610a29565b820191906000526020600020905b815481529060010190602001808311610a0c57829003601f168201915b505050505090806003015490806004018054610a44906112d9565b80601f0160208091040260200160405190810160405280929190818152602001828054610a70906112d9565b8015610abd5780601f10610a9257610100808354040283529160200191610abd565b820191906000526020600020905b815481529060010190602001808311610aa057829003601f168201915b505050505090806005018054610ad2906112d9565b80601f0160208091040260200160405190810160405280929190818152602001828054610afe906112d9565b8015610b4b5780601f10610b2057610100808354040283529160200191610b4b565b820191906000526020600020905b815481529060010190602001808311610b2e57829003601f168201915b505050505090806006018054610b60906112d9565b80601f0160208091040260200160405190810160405280929190818152602001828054610b8c906112d9565b8015610bd95780601f10610bae57610100808354040283529160200191610bd9565b820191906000526020600020905b815481529060010190602001808311610bbc57829003601f168201915b5050505050905087565b600081519050919050565b600082825260208201905092915050565b6000819050602082019050919050565b600081519050919050565b600082825260208201905092915050565b60005b83811015610c49578082015181840152602081019050610c2e565b60008484015250505050565b6000601f19601f8301169050919050565b6000610c7182610c0f565b610c7b8185610c1a565b9350610c8b818560208601610c2b565b610c9481610c55565b840191505092915050565b6000610cab8383610c66565b905092915050565b6000602082019050919050565b6000610ccb82610be3565b610cd58185610bee565b935083602082028501610ce785610bff565b8060005b85811015610d235784840389528151610d048582610c9f565b9450610d0f83610cb3565b925060208a01995050600181019050610ceb565b50829750879550505050505092915050565b600081519050919050565b600082825260208201905092915050565b6000819050602082019050919050565b6000819050919050565b610d7481610d61565b82525050565b6000610d868383610d6b565b60208301905092915050565b6000602082019050919050565b6000610daa82610d35565b610db48185610d40565b9350610dbf83610d51565b8060005b83811015610df0578151610dd78882610d7a565b9750610de283610d92565b925050600181019050610dc3565b5085935050505092915050565b600060e0820190508181036000830152610e17818a610cc0565b90508181036020830152610e2b8189610cc0565b90508181036040830152610e3f8188610cc0565b90508181036060830152610e538187610d9f565b90508181036080830152610e678186610cc0565b905081810360a0830152610e7b8185610cc0565b905081810360c0830152610e8f8184610cc0565b905098975050505050505050565b6000604051905090565b600080fd5b600080fd5b600080fd5b600080fd5b7f4e487b7100000000000000000000000000000000000000000000000000000000600052604160045260246000fd5b610ef382610c55565b810181811067ffffffffffffffff82111715610f1257610f11610ebb565b5b80604052505050565b6000610f25610e9d565b9050610f318282610eea565b919050565b600067ffffffffffffffff821115610f5157610f50610ebb565b5b610f5a82610c55565b9050602081019050919050565b82818337600083830152505050565b6000610f89610f8484610f36565b610f1b565b905082815260208101848484011115610fa557610fa4610eb6565b5b610fb0848285610f67565b509392505050565b600082601f830112610fcd57610fcc610eb1565b5b8135610fdd848260208601610f76565b91505092915050565b610fef81610d61565b8114610ffa57600080fd5b50565b60008135905061100c81610fe6565b92915050565b600080600080600080600060e0888a03121561103157611030610ea7565b5b600088013567ffffffffffffffff81111561104f5761104e610eac565b5b61105b8a828b01610fb8565b975050602088013567ffffffffffffffff81111561107c5761107b610eac565b5b6110888a828b01610fb8565b965050604088013567ffffffffffffffff8111156110a9576110a8610eac565b5b6110b58a828b01610fb8565b95505060606110c68a828b01610ffd565b945050608088013567ffffffffffffffff8111156110e7576110e6610eac565b5b6110f38a828b01610fb8565b93505060a088013567ffffffffffffffff81111561111457611113610eac565b5b6111208a828b01610fb8565b92505060c088013567ffffffffffffffff81111561114157611140610eac565b5b61114d8a828b01610fb8565b91505092959891949750929550565b60006020828403121561117257611171610ea7565b5b600061118084828501610ffd565b91505092915050565b600082825260208201905092915050565b60006111a582610c0f565b6111af8185611189565b93506111bf818560208601610c2b565b6111c881610c55565b840191505092915050565b6111dc81610d61565b82525050565b600060e08201905081810360008301526111fc818a61119a565b90508181036020830152611210818961119a565b90508181036040830152611224818861119a565b905061123360608301876111d3565b8181036080830152611245818661119a565b905081810360a0830152611259818561119a565b905081810360c083015261126d818461119a565b905098975050505050505050565b7f4e487b7100000000000000000000000000000000000000000000000000000000600052603260045260246000fd5b7f4e487b7100000000000000000000000000000000000000000000000000000000600052602260045260246000fd5b600060028204905060018216806112f157607f821691505b602082108103611304576113036112aa565b5b50919050565b60008190508160005260206000209050919050565b60006020601f8301049050919050565b600082821b905092915050565b60006008830261136c7fffffffffffffffffffffffffffffffffffffffffffffffffffffffffffffffff8261132f565b611376868361132f565b95508019841693508086168417925050509392505050565b6000819050919050565b60006113b36113ae6113a984610d61565b61138e565b610d61565b9050919050565b6000819050919050565b6113cd83611398565b6113e16113d9826113ba565b84845461133c565b825550505050565b600090565b6113f66113e9565b6114018184846113c4565b505050565b5b818110156114255761141a6000826113ee565b600181019050611407565b5050565b601f82111561146a5761143b8161130a565b6114448461131f565b81016020851015611453578190505b61146761145f8561131f565b830182611406565b50505b505050565b600082821c905092915050565b600061148d6000198460080261146f565b1980831691505092915050565b60006114a6838361147c565b9150826002028217905092915050565b6114bf82610c0f565b67ffffffffffffffff8111156114d8576114d7610ebb565b5b6114e282546112d9565b6114ed828285611429565b600060209050601f831160018114611520576000841561150e578287015190505b611518858261149a565b865550611580565b601f19841661152e8661130a565b60005b8281101561155657848901518255600182019150602085019450602081019050611531565b86831015611573578489015161156f601f89168261147c565b8355505b6001600288020188555050505b50505050505056fea2646970667358221220935f35dbe78428e641295f574d2e37e7f69450ac47432670a660772fcfb851e364736f6c634300081c0033",
  "linkReferences": {},
  "deployedLinkReferences": {}
}